:1070000055C000006EC000006CC000006AC00000E7
:1070100068C0000066C0000064C0000062C00000DC
:1070200060C000005EC00000CCC400005AC0000078
:1070300058C0000056C0000054C0000052C00000FC
:1070400050C000005AC000004CC000004AC0000000
:1070500048C0000046C0000044C0000042C000001C
:1070600040C000003EC000003CC000003AC000002C
:1070700038C0000036C0000034C0000032C000003C
:1070800030C000002EC000002CC000002AC000004C
:1070900028C0000026C0000024C0000022C000005C
:1070A00020C000001EC000001CC0000011241FBE34
:1070B000CFEFDAE0DEBFCDBF11E0A0E0B1E0E2EE5D
:1070C000FEE702C005900D92A43BB107D9F711E08D
:1070D000A4EBB1E001C01D92AD3CB107E1F744D390
:1070E000FEC68ECFF89410926F001092810081E05E
:1070F00085BF15BE0C94000008951F920F920FB625
:107100000F9211242F938F939F93EF93FF931092DD
:107110008500109284008091B4019091B501009790
:1071200029F001979093B5018093B4018091B60145
:107130009091B701009729F001979093B701809340
:10714000B6018091BA019091BB0101969093BB0169
:107150008093BA01E0E0F0E0859194918F5F9F4FBA
:1071600049F08091B8019091B90101969093B901CD
:107170008093B801FF91EF919F918F912F910F9084
:107180000FBE0F901F90189584E08093E9000DC00A
:107190008091E8008B778093E80003C08EB388234A
:1071A00051F08091E80082FFF9CF8091E80085FFDF
:1071B000EFCF8091F1000895982F83E08093E9004C
:1071C0008091E80085FD0DC08091E8008E77809366
:1071D000E80003C08EB3882361F08091E80080FF4F
:1071E000F9CF9093F10084E690E09093B5018093FD
:1071F000B40108954F925F926F927F928F929F9207
:10720000AF92BF92CF92DF92EF92FF920F931F93B4
:10721000CF93DF9384E08093E9008091E80082FFC0
:1072200056C284E690E09093B7018093B601ACDF3C
:10723000182F853481F48CE49DE19093B9018093FB
:10724000B80107B600FCFDCFF999FECF81E180932C
:107250005700E89503C0843519F496DF8DE00DC220
:107260008C34E1F38035D1F3843721F484E4A4DF56
:1072700080E003C2813611F489E5FFC18134B1F4A5
:1072800083DF182F81DF90E0880F991FAA2797FDD1
:10729000A095BA2F312F330F20E0442737FD4095BA
:1072A000542F822B932BA42BB52BB8C1803711F40C
:1072B00083E5E3C1833549F4C0E0D1E089917CDF07
:1072C00021E0C730D207D1F7D9C1863521F481E357
:1072D00073DF80E3D2C1833731F487E86DDF85E95E
:1072E0006BDF8EE1CAC18536B9F4E0E0F0E093E0EF
:1072F00085E090935700E89507B600FCFDCF80939A
:107300005700E89507B600FCFDCFE058FF4FA0E717
:10731000E030FA0771F7A2CF823739F4E1E0F0E00C
:1073200089E0809357008491A8C1863439F4E0E065
:10733000F0E089E08093570084919FC18E3439F446
:10734000E3E0F0E089E080935700849196C18135B5
:1073500039F4E2E0F0E089E08093570084918DC138
:10736000823631F489E528DF80E026DF80E885C1B8
:10737000823419F0873609F0E5C01092B9011092F5
:10738000B80102DF082F00DFF82EFEDE682E8554DC
:10739000823008F071C1902F80E0CF2DD0E0C82B53
:1073A000D92B10926F00173609F04BC081E1809302
:1073B0005700E895DD24CC24C3943FC0E090BD0184
:1073C000F090BE010091BF011091C001B6E46B16B0
:1073D000D9F4ED2DF0E0EE29FF29E4918E2FECDEBB
:1073E000DD2081F082E090E0A0E0B0E0E80EF91E40
:1073F0000A1F1B1FE092BD01F092BE010093BF0166
:107400001093C001DC2418C0D801C701B695A79518
:10741000979587954ED5D0DE82E090E0A0E0B0E071
:10742000E80EF91E0A1F1B1FE092BD01F092BE017B
:107430000093BF011093C0012197209709F0BECFA0
:107440007DC08090BD019090BE01A090BF01B09022
:10745000C00196E4691609F05DC083E0F4018093F1
:107460005700E89507B600FCFDCF54C0F6E46F1650
:1074700061F5772031F1E090BD01F090BE010091FF
:10748000BF011091C00180DED82ECC24852D90E064
:107490008C299D29F7010C0140925700E895112491
:1074A00082E090E0A0E0B0E0E80EF91E0A1F1B1F8A
:1074B000E092BD01F092BE010093BF011093C001A4
:1074C00002C062DE582E742423C0E090BD01F0900B
:1074D000BE010091BF011091C00116950795F79468
:1074E000E79452DE682FC701ECD48091BD019091E2
:1074F000BE01A091BF01B091C0010296A11DB11DB6
:107500008093BD019093BE01A093BF01B093C001D1
:10751000219704C07724552444244394209709F0EC
:10752000A5CF96E4691641F485E0F40180935700F5
:10753000E89507B600FCFDCF8DE03EDE82E080934B
:107540006F009CC0833471F40091BD011091BE01A5
:107550001BDE90E021E0F8010C0120935700E89534
:1075600011247CCE833619F5E090BD01F090BE0168
:107570000091BF011091C00107DEF701E16090E0CA
:1075800021E00C0120935700E895112482E090E05F
:10759000A0E0B0E0E80EF91E0A1F1B1FE092BD013B
:1075A000F092BE010093BF011093C00157CE8D36FB
:1075B00061F4E091BD01F091BE0185E08093570038
:1075C000E89507B600FCFDCF49CE823551F4E09135
:1075D000BD01F091BE0105911491812FEDDD802F49
:1075E0004CC0843421F5E090BD01F090BE010091C3
:1075F000BF011091C00116950795F794E794C4DD7B
:10760000682FC7015ED48091BD019091BE01A09109
:10761000BF01B091C0010296A11DB11D8093BD01B3
:107620009093BE01A093BF01B093C00117CE8436E2
:1076300009F5E090BD01F090BE010091BF011091ED
:10764000C001D801C701B695A7959795879531D404
:10765000B3DD82E090E0A0E0B0E0E80EF91E0A1F82
:107660001B1FE092BD01F092BE010093BF01109379
:10767000C00104C08B3111F08FE39EDD83E0809365
:10768000E9009091E8008091E8008E778093E8000F
:1076900095FF04C010C08EB38823C9F08091E80024
:1076A00080FFF9CF8091E8008E778093E80003C0D7
:1076B0008EB3882361F08091E80080FFF9CF84E0E9
:1076C0008093E9008091E8008B778093E800DF9158
:1076D000CF911F910F91FF90EF90DF90CF90BF90CF
:1076E000AF909F908F907F906F905F904F90089594
:1076F0009091C501892F8F77813249F58091C6011C
:107700008032A1F0813219F5913A09F58091E800B3
:10771000877F8093E8008CE091E067E070E000D222
:107720008091E8008B778093E8000895913279F496
:107730008091E800877F8093E8008CE091E067E02B
:1077400070E052D28091E8008E778093E80008952F
:1077500082E061EC42E0ACD083E061E842E1A8D095
:1077600084E060E842E1A4C0809100081092000823
:1077700084B714BE88E10FB6F8948093600010922D
:1077800060000FBE80E8E0E0F0E00FB6F894809370
:107790006100E09361000FBE21E025BF92E095BF3C
:1077A0008093610010926100109289008AEF8093AB
:1077B000880090936F0083E080938100859194917D
:1077C0008F5F9F4F11F02093BC017894809113013B
:1077D000882339F08091BA019091BB0185369105DB
:1077E000C8F381E080931301F894669B05C08091F3
:1077F000BC01882309F076DCCCD078941092B901D2
:107800001092B8011AC0F6DC42D38091B801909171
:10781000B90181549F4140F01092130183E390E03D
:1078200060E04FD3F999FECF8091C1019091C201E0
:1078300001969093C2018093C10180911301882326
:1078400011F78091E00081608093E0004BDC80E0E4
:1078500090E00895FA01923049F0933061F0913050
:10786000F9F484E191E022E130E01EC086E291E08B
:107870002EE330E019C0882329F484E691E024E067
:1078800030E012C0813029F488E691E02EE130E04A
:107890000BC0823029F488E891E02AE230E004C08D
:1078A00080E090E020E030E091838083C90108957A
:1078B0008093E9008091EB0081608093EB0010924F
:1078C000ED006093EC004093ED008091EE00881F86
:1078D0008827881F08958091C50188238CF403C0F0
:1078E0008EB38823B1F08091E80082FFF9CF8091B8
:1078F000E8008B778093E80008958EB3882349F0E1
:107900008091E80080FFF9CF8091E8008E77809326
:10791000E8000895EF92FF920F931F9345D04CD04B
:1079200008ED10E0F80180818F7780838081806886
:10793000808380818F7D808319BC1EBA1092C30121
:1079400080EEE82EF12CF70180818B7F8083F80197
:1079500080818160808380E060E042E0A9DFE1EE29
:10796000F0E080818E7F8083E2EEF0E080818160B4
:107970008083808188608083F70180818E7F80830F
:10798000F8018081806180831F910F91FF90EF90BB
:107990000895E7EDF0E08081816080838AE482BF12
:1079A00081E08093C401B6CFE8EDF0E080818E7F66
:1079B00080831092E20008951092DA001092E100A4
:1079C00008951F920F920FB60F9211242F933F9399
:1079D0004F935F936F937F938F939F93AF93BF93D7
:1079E000EF93FF938091DA0080FF1AC08091D80056
:1079F00080FF16C08091DA008E7F8093DA0080913C
:107A0000D90080FF0AC019BC82E089BD09B400FE1C
:107A1000FDCF81E08EBB3AD203C019BC1EBA36D26C
:107A20008091E10080FF17C08091E20080FF13C0C9
:107A30008091E2008E7F8093E2008091E20080617D
:107A40008093E2008091D80080628093D80019BCB6
:107A500085E08EBB1BD28091E10084FF2BC080911A
:107A6000E20084FF27C019BC82E089BD09B400FE92
:107A7000FDCF8091D8008F7D8093D8008091E10068
:107A80008F7E8093E1008091E2008F7E8093E20000
:107A90008091E20081608093E2008091C30188239D
:107AA00031F48091E30087FD02C081E001C084E0F1
:107AB0008EBBECD18091E10083FF21C08091E20078
:107AC00083FF1DC08091E100877F8093E10082E009
:107AD0008EBB1092C3018091E1008E7F8093E10004
:107AE0008091E2008E7F8093E2008091E2008061CD
:107AF0008093E20080E060E042E0DADEC7D1FF91EF
:107B0000EF91BF91AF919F918F917F916F915F9115
:107B10004F913F912F910F900FBE0F901F9018958E
:107B20009C014091CB015091CC014617570718F4A6
:107B3000F90190E044C06115710511F0AB01F8CF77
:107B40008091E8008E778093E80040E050E0F0CF2D
:107B50008EB3882309F444C0853009F443C0809172
:107B6000E80083FF02C081E008958091E80082FD73
:107B700031C08091E80080FF22C08091F300909195
:107B8000F200782F60E0292F30E0262B372B07C03A
:107B900081918093F100415050402F5F3F4F41153C
:107BA000510519F02830310598F390E0283031055F
:107BB00009F491E08091E8008E778093E800411508
:107BC000510531F6992321F605C08EB3882341F083
:107BD000853041F08091E80082FFF7CF80E0089582
:107BE00082E0089583E008959C016115710529F4F0
:107BF0008091E8008B778093E800F90126C08EB36E
:107C0000882391F1853091F18091E80083FF02C0D3
:107C100081E008958091E80082FFF1CF06C0809155
:107C2000F10081936150704059F02091F3008091F0
:107C3000F200322F20E090E0822B932B892B79F7F2
:107C40008091E8008B778093E80061157105B9F6A3
:107C500005C08EB3882341F0853041F08091E80063
:107C600080FFF7CF80E0089582E0089583E00895D3
:107C70000F931F93DF93CF9300D0CDB7DEB7E5EC22
:107C8000F1E08091F100819381E0ED3CF807C9F7C4
:107C90002FDD8091E80083FFE4C08091C5019091C1
:107CA000C601953009F46DC0963040F4913081F1F1
:107CB000913070F0933009F0D4C02AC0983009F4A4
:107CC000A3C0993009F4B2C0963009F0CAC07CC094
:107CD000803809F4C6C0823809F0C3C08091C90158
:107CE00087708093E9008091EB001092E900209169
:107CF000E800277F2093E80090E025E0969587959F
:107D00002A95E1F781708093F1001092F10087C00D
:107D1000882319F0823009F0A4C08F71823009F0F5
:107D2000A0C08091C701882331F52091C901277037
:107D300009F497C02093E9008091EB0080FF1BC0FD
:107D4000933021F48091EB00806213C08091EB00AE
:107D500080618093EB0081E090E002C0880F991F62
:107D60002A95E2F78093EA001092EA008091EB00F6
:107D700088608093EB001092E9008091E800877F93
:107D800051C0882309F06DC01091C7011F770FB74C
:107D9000F8948091E800877F8093E8009CDD8091D3
:107DA000E80080FFFCCF8091E3008078812B8093F6
:107DB000E30080688093E300112311F482E001C0A6
:107DC00083E08EBB0FBF4DC08058823008F049C0A1
:107DD0008091C7019091C8016091C901AE014F5FC8
:107DE0005F4F38DDBC01009709F43BC08091E8008B
:107DF000877F8093E80089819A8192DE8091E800F4
:107E00008B778093E8002DC0803859F58091E80089
:107E1000877F8093E8008091C3018093F100809177
:107E2000E8008E778093E80056DD1BC08823C9F4F4
:107E30009091C7019230A8F48091E800877F8093E9
:107E4000E8009093C30147DD8091C301882331F49A
:107E50008091E30087FD02C081E001C084E08EBB19
:107E600077DC8091E80083FF0AC08091EB0080629C
:107E70008093EB008091E800877F8093E8000F906B
:107E80000F90CF91DF911F910F91089508951F9347
:107E90008EB3882361F01091E9001092E90080917F
:107EA000E80083FF01C0E4DE17701093E9001F9122
:107EB0000895F999FECF92BD81BDF89A992780B5B2
:107EC0000895262FF999FECF1FBA92BD81BD20BD1E
:107ED0000FB6F894FA9AF99A0FBE01960895F8949D
:027EE000FFCFD2
:107EE2004341544552494E410077000800000000CA
:107EF2000000080112011001020000084F1B03924A
:107F020001000201000109023E0002010080320963
:107F120004000001020201000524001001042402F1
:107F2200040524060001070582030800FF09040175
:107F320000020A0000000705040210000107058381
:107F420002100001040309041E03500072006F00B6
:107F520020004D006900630072006F0020003300B2
:107F62002E003300560000002A0353007000610007
:107F720072006B00460075006E00200045006C0028
:107F820065006300740072006F006E006900630098
:047F92007300000078
:040000030000700089
:00000001FF
